:020000040000FA
:10000000020EC4C2DE75D90CD2DE2202150975E3D8
:100010004022220213028F15E515540FFF121564BA
:10002000E515C4540F4410FF02156402002EC0E011
:10003000C0D0300412E5324531600AE53215327025
:100040000615318002C204D3E53094007480948098
:1000500040021530C2CFD0D0D0E032021497121334
:10006000DCE4F52DF52175233CF5287529B47F32A4
:10007000FE1215B91214BA12107190008EE0F52418
:10008000A3E0F525900090E0F526A3E0F527120700
:100090003112144F12124B7FAF121564750E027598
:1000A0000F187510297B0BE4FDFF1210C7AF25AEAA
:1000B0002412135F7A187B3F7D027F0B1212C81245
:1000C0001019500FE5299400E528648094804003BE
:1000D0001213B4D3E5299400E5286480948040038A
:1000E000121403E5294528700B300108120731125C
:1000F0000AAAC201C3E52864809480502030000819
:100100001209A4120AAAC200C3E52994F6E52864DC
:1001100080947F5008D20074FFF528F52912138BC4
:100120008F08D3E5299400E52864809480501EEF61
:100130006401701912124B1213B47FE87E0312157A
:10014000B9E4F52DF508D201F5287529B4AF087E7C
:1001500000EF60067528007529B4EF64014E700346
:1001600002020CEF64034E7036AF21EF64026009A7
:10017000752102E4F52202020CAF22EF700BAF2CC6
:10018000EF700675220102020CAF22EF64016003DA
:10019000020233AF2CEF6003020233F522806DE5DB
:1001A0000864027046AF22EF64026015AF22EF646C
:1001B00003600EAF22EF64046007AF22EF640570A6
:1001C00072C2AF852E09852F0AD2AFD3E50A942AD1
:1001D000E5099400405DC2AF852E09852F0A752E72
:1001E00000752F28D2AF752B048040AF087E00EF3A
:1001F0006405701DAD22ED7007752202F52B800C91
:10020000AD22ED6401702C752204F52B752C1E8037
:1002100022EF64044E701CE52114600A04700CE4A3
:10022000F524F5258005E4F526F527752C1EAF226B
:10023000120BA6E52114603C14607D2402600302C9
:100240000331E525452460030203317FF47E01126A
:1002500015B9D283752101900090E0F526A3E0F551
:100260002712124B7528007529B4AF27AE2612133A
:1002700033020331E52745266003020331C2837F41
:10028000C8FE1215B9E4F52190008EE0F524A3E034
:10029000F52575233C12124B7528007529B4750E8F
:1002A00002750F187510297B0BE4FDFF1210C7AF04
:1002B00025AE2412135F8079AF22EF7031AF2BEFA0
:1002C00070028036AF2BC3EF940574809480506128
:1002D000750E02750F187510297B0BE4FDFF1210C7
:1002E000C790008EE0FEA3E0FF12135F803CAF22B8
:1002F000EF6401703CAF2BEF700812124B752B08A6
:10030000802FAF2BC3EF9405748094805023750E1B
:1003100002750F1875103F7B0BE4FDFF1210C7909C
:100320000090E0FEA3E0FF1213337F0A7E00121557
:10033000B9E52224FD700302040A146068147003F6
:1003400002046F240360030200BFAF2CEF70057539
:1003500022038059AF2BEF7022750E02750F1875AE
:1003600010297B0BFDFF1210C790008EE0FEA3E06A
:10037000FF12135F750E027B24805FAF2BC3EF94D7
:10038000057480948040030200BF90008EE0FEA3BD
:10039000E0FF7C007D3C12052FAB07E4FD7F1612C9
:1003A0000C9C020465AF2CEF700B752205F52B75C4
:1003B0002C1E0200BFAF2BEF7027750E02750F18B1
:1003C00075103F7B0BFDFF1210C7900090E0FEA35D
:1003D000E0FF121333750E027B29E4FD7F16020441
:1003E000A6AF2BC3EF94057480948040030200BF36
:1003F000900090E0FEA3E0FF7C007D3C12052FAB57
:1004000007E4FD7F16120D54805BAF2CEF7004F5EE
:10041000218061AF2BEF7026750E02750F187510D5
:10042000297B0BFDFF1210C790008EE0FEA3E0FFBA
:1004300012135F750E027B24E4FD7F3B8068AF2BB7
:10044000C3EF94057480948040030200BF90008E37
:10045000E0FEA3E0FF7C007D3C12052FAB05E4FD30
:100460007F3B120D547F0A7E001215B90200BFAF08
:100470002CEF7009120FBF75EF120200BFAF2BEF08
:10048000702D750E02750F1875103F7B0BFDFF1256
:1004900010C7900090E0FEA3E0FF121333750E0228
:1004A0007B1FE4FD7F4012128E752B080200BFAF48
:1004B0002BC3EF94057480948040030200BF90002A
:1004C00090E0FEA3E0FF7C007D3C12052FAB05E42D
:1004D000FD7F40120E0C7F0A7E001215B90200BF8C
:1004E000BB010CE58229F582E5833AF583E02250D1
:1004F00006E92582F8E622BBFE06E92582F8E2221B
:10050000E58229F582E5833AF583E49322F8BB017D
:100510000DE58229F582E5833AF583E8F02250065D
:10052000E92582C8F622BBFE05E92582C8F222BC75
:10053000000BBE0029EF8DF084FFADF022E4CCF873
:1005400075F008EF2FFFEE33FEEC33FCEE9DEC98D8
:100550004005FCEE9DFE0FD5F0E9E4CEFD22EDF85E
:10056000F5F0EE8420D21CFEADF075F008EF2FFF01
:10057000ED33FD4007985006D5F0F222C398FD0FE9
:10058000D5F0EA22C2D5EC30E709B2D5E4C39DFD2F
:10059000E49CFCEE30E715B2D5E4C39FFFE49EFE79
:1005A00012052FC3E49DFDE49CFC800312052F304F
:1005B000D507C3E49FFFE49EFE22E88FF0A4CC8B16
:1005C000F0A42CFCE98EF0A42CFC8AF0EDA42CFC09
:1005D000EA8EF0A4CDA8F08BF0A42DCC3825F0FD48
:1005E000E98FF0A42CCD35F0FCEB8EF0A4FEA9F041
:1005F000EB8FF0A4CFC5F02ECD39FEE43CFCEAA48D
:100600002DCE35F0FDE43CFC2275F008758200EF3C
:100610002FFFEE33FECD33CDCC33CCC58233C58234
:100620009BED9AEC99E58298400CF582EE9BFEEDED
:100630009AFDEC99FC0FD5F0D6E4CEFBE4CDFAE4BC
:10064000CCF9A88222B800C1B90059BA002DEC8BB0
:10065000F084CFCECDFCE5F0CBF97818EF2FFFEE8C
:1006600033FEED33FDEC33FCEB33FB10D703994045
:1006700004EB99FB0FD8E5E4F9FA227818EF2FFF85
:10068000EE33FEED33FDEC33FCC933C910D7059BC7
:10069000E99A4007EC9BFCE99AF90FD8E0E4C9FA23
:1006A000E4CCFB2275F010EF2FFFEE33FEED33FDAF
:1006B000CC33CCC833C810D7079BEC9AE899400AD2
:1006C000ED9BFDEC9AFCE899F80FD5F0DAE4CDFB50
:1006D000E4CCFAE4C8F922EB9FF5F0EA9E42F0E997
:1006E0009D42F0E89C45F022F5F0C582A4C582C584
:1006F000F0C583A42583F58322A42582F582E5F045
:100700003583F58322EF4E6012EF60010EEDBB01E1
:100710000B89828A83F0A3DFFCDEFA2289F050077E
:10072000F709DFFCA9F022BBFEFCF309DFFCA9F00E
:1007300022C3E5259428E52494005006AE24AF2575
:1007400080047E007F288E0D8F0E7E007F787D00D6
:100750007B017A007900120705E4F50BF50CC3E57F
:100760000C950EE50B950D400302088712116CEEF7
:100770003395E0FDFCE47B60FAF9F81205BAE47BFE
:10078000FF7A7FF9F81206458F0F12116CEE339540
:10079000E0FDFCE47B10FAF9F81205BAE47BFF7A7D
:1007A0007FF9F8120645E4FDFCC3ED950CEC950BC2
:1007B000507390000075F003ED1206F9EC75F0032C
:1007C000A42583F583E0650F705490000175F00354
:1007D000ED1206F9EC75F003A42583F583E06F7044
:1007E0003D12116CEE3395E0FDFCE47B60FAF9F804
:1007F0001205BAE47BFF7A7FF9F81206458F0F12D3
:10080000116CEE3395E0FDFCE47B10FAF9F812056B
:10081000BAE47BFF7A7FF9F8120645E4FCFD0DBDD2
:1008200000010C808490000075F003E50C1206F9BD
:10083000E50B75F003A42583F583E50FF090000127
:1008400075F003E50C1206F9E50B75F003A425839A
:10085000F583EFF0D39407748094807F0040027F8B
:1008600060E50F2FFF90000275F003E50C1206F90A
:10087000E50B75F003A42583F583EFF0050CE50C7B
:100880007002050B02075EAF0E02088CE4FEEF1447
:10089000FDEEC39D40030209A3C203E4FDC3EF9E26
:1008A00014FCEDC39C400302099CED75F003A424E5
:1008B00005F582E43400F583E0FCED75F003A42433
:1008C00002F582E43400F583E0D39C5003020998DA
:1008D000ED75F003A42400F582E43400F583E0F51F
:1008E00010ED75F003A42403F582E43400F583E0F1
:1008F000FCED75F003A42400F582E43400F583ECEC
:10090000F0ED75F003A42403F582E43400F583E5EB
:1009100010F0ED75F003A42401F582E43400F583B2
:10092000E0F510ED75F003A42404F582E43400F53D
:1009300083E0FCED75F003A42401F582E43400F5B6
:1009400083ECF0ED75F003A42404F582E43400F5A3
:1009500083E510F0ED75F003A42402F582E4340081
:10096000F583E0F510ED75F003A42405F582E43479
:1009700000F583E0FCED75F003A42402F582E43475
:1009800000F583ECF0ED75F003A42405F582E43462
:1009900000F583E510F0D2030D02089D3003040E2C
:1009A00002088E22C3E5259428E52494007F285070
:1009B00002AF258F0DC20212116CAB07AA06EA33F3
:1009C00095E0F9F8AF0DE4FCFDFE1205BAE47BFFFB
:1009D0007A7FF9F81206458F0CE50CB50D05E50D8B
:1009E00014F50C12116CEE3395E0FDFCE47B60FA1B
:1009F000F9F81205BAE47BFF7A7FF9F81206458F01
:100A00000B12116CEE3395E0FDFCE47B10FAF9F863
:100A10001205BAE47BFF7A7FF9F8120645E50B640C
:100A2000606005EF64107003150B1FE4FEEEC395C4
:100A30000D5029EE75F003A42400F582E43400F58E
:100A400083E0B50B14EE75F003A42401F582E434C1
:100A500000F583E0B50702D2020E80D120024AE5FC
:100A60000C75F003A42400F582E43400F583E50B53
:100A7000F0E50C75F003A42401F582E43400F5835D
:100A8000EFF0D39407748094807F0040027F60E58C
:100A90000B2FFFE50C75F003A42402F582E434006B
:100AA000F583EFF0AF0D12088C22E4F50CC3E525B9
:100AB0009428E52494007F285002AF258F0DE4FF91
:100AC000120016E4FF1215E1121596E4F50BC3E5CA
:100AD0000B94C0748094804003020BA3E4F50EF5E0
:100AE0000FE50CC3950D5012E50C75F003A424021C
:100AF000F582E43400F583E0F50EE50B650E600346
:100B0000020B99E50C75F003A42401F582E434008E
:100B1000F583E0D39407748094807F0040027F08BF
:100B2000E50C75F003A42401F582E43400F583E0BC
:100B3000C39FFFF87401088002C333D8FCF50F058A
:100B40000CE50C650D6052E50C75F003A42402F56C
:100B500082E43400F583E0650E703EE50C75F00329
:100B6000A42401F582E43400F583E0D39407748073
:100B700094807F0040027F08E50C75F003A42401F7
:100B8000F582E43400F583E0C39FFFF87401088028
:100B900002C333D8FC420F80A6AF0F12142A050BF4
:100BA000020ACE021571EF24FD603E14607B1470C2
:100BB00003020C5724036003020C9B90008EE0FE9E
:100BC000A3E0FF7C007D3C12052FAB05E0243CF048
:100BD00090008EE03400F0D3A3E0946F90008EE09C
:100BE00094175003020C9B806990008EE0FEA3E0F6
:100BF000FF7C007D3C12052FAB07E004F0700690EF
:100C0000008EE004F090008EE0FEA3E0FF7C007D0B
:100C10003C12052FEBFDD3EF9DEE9400407DEB756C
:100C2000F03CA4FF90008E806C900090E0FEA3E06A
:100C3000FF7C007D3C12052FAB05E0243CF09000CA
:100C400090E03400F0D3A3E0946F900090E094170C
:100C50004049EBFFE48040900090E0FEA3E0FF7C81
:100C6000007D3C12052FAB07E004F0700690009069
:100C7000E004F0900090E0FEA3E0FF7C007D3C12D9
:100C8000052FEBFDD3EF9DEE9400400FEB75F03C8C
:100C9000A4FF900090E5F0F0A3EFF0228F0D8D0EF1
:100CA000EBFF7E00C394647480948050238E128F77
:100CB00013AE127C007D0A1205848F10AE12AF13A2
:100CC0007C007D0A1205848C128D13851311800619
:100CD00075100A75110AE4F512F513AF0D1200161E
:100CE000E50E2513FF1215E1121596AF13AD101284
:100CF0001202E4FF12142AAF13AD11121202E4FF24
:100D000012142AE4F50FC3E50F9406748094805002
:100D10002C85138285128374061206E8E582250F5E
:100D2000F582E43583F583E5822410F582E583348A
:100D300017F583E493FF12142A050F80C912157169
:100D40000513E51370020512C39402E51264809442
:100D5000804088228F0D8D0EEBFF7E00C39464745B
:100D600080948050238E128F13AE127C007D0A1265
:100D700005848F10AE12AF137C007D0A1205848C9F
:100D8000128D13851311800675100A75110AE4F58A
:100D900012F513AF0D120016E50E2513FF1215E123
:100DA000121596AF13AD10121202E4FF12142AAFFF
:100DB00013AD11121202E4FF12142AE4F50FC3E579
:100DC0000F940A74809480502C851382851283744A
:100DD0000A1206E8E582250FF582E43583F583E5FE
:100DE00082241CF582E5833417F583E493FF121403
:100DF0002A050F80C91215710513E513700205123B
:100E0000C39402E512648094804088228F0D8D0E79
:100E1000EBFF7E00C394647480948050238E128F05
:100E200013AE127C007D0A1205848F10AE12AF1330
:100E30007C007D0A1205848C128D138513118006A7
:100E400075100A75110AE4F512F513AF0D120016AC
:100E5000E50E2513FF1215E1121596AF13AD101212
:100E60001202E4FF12142AAF13AD11121202E4FFB2
:100E700012142AE4F50FC3E50F9405748094805092
:100E80002C85138285128374051206E8E582250FEE
:100E9000F582E43583F583E5822430F582E58334F9
:100EA00017F583E493FF12142A050F80C9121571F8
:100EB0000513E51370020512C39402E512648094D1
:100EC00080408822120012787FE4F6D8FD758134C4
:100ED000020F0E02005EE493A3F8E493A34003F62E
:100EE0008001F208DFF48029E493A3F85407240C6E
:100EF000C8C333C4540F4420C8834004F45680014F
:100F000046F6DFE4800B01020408102040809015B3
:100F1000AEE47E019360BCA3FF543F30E509541F4B
:100F2000FEE493A360010ECF54C025E060A840B852
:100F3000E493A3FAE493A3F8E493A3C8C582C8CAD0
:100F4000C583CAF0A3C8C582C8CAC583CADFE9DEA3
:100F5000E780BEA905E4FDEDC39F5062C202C20353
:100F6000E4FCECC3995040EC8FF0A42D2478F5827A
:100F7000E43400F583E0FED3947F748094804003D2
:100F8000D38001C39202EE25E0FEA203E4334206C1
:100F9000EC8FF0A42D2478F582E43400F583EEF094
:100FA000A20292030C80BB74782DF582E43400F524
:100FB00083E0FCA203E433FBEC4BF00D8099227537
:100FC000120175130075148E75151E751600753394
:100FD000A57534F17F007E1E1215A2E4F511C3E55C
:100FE000119404748094805020AB12AA13A9148524
:100FF00011827583001204E0FFE5112516FDE4352A
:1010000015FC1214F6051180D51214737D047C1E94
:101010001214F6E4F533F53422C202300550C2054D
:10102000E529152970021528E52114602C04703E6D
:10103000D3E52394007480948040041523802F7599
:10104000233CD3E5259400E52494004008E52515CC
:101050002570021524D2028015D3E5279400E526D9
:1010600094004008E527152770021526D202A20237
:1010700022750C01750D00750E8E750F1E75100012
:10108000121473901E04E4936F600D12151B7F649D
:101090007E001215B9120FBFE4F50BC3E50B9404E3
:1010A000748094805020E510250BF582E4350FF50F
:1010B00083E493AB0CAA0DA90E850B8275830012F5
:1010C000050D050B80D5228F0B8D0C8B0DE4F513D0
:1010D000F514F511E511C3950E503EAF0B12001635
:1010E000AF0C1215E1121596E4F512E512C3950D39
:1010F000501EE5102514F582E50F3513F583E493B2
:10110000FF12142A0514E51470020513051280DB82
:10111000121571050C051180BB228F0B8D0C8B0DE8
:10112000E4F513F514F511E511C3950E503DAF0B21
:10113000120016AF0C1215E1121596E4F512E51225
:10114000C3950D501DE5102514F582E50F3513F5F7
:1011500083E0FF12142A0514E5147002051305122A
:1011600080DC121571050C051180BC22AC1CAD1D74
:10117000AE1EAF1F7810EC4D4E4F70047CA57DA5C0
:10118000C3EC13FCED13FDEE13FEEF13FF5010EC58
:1011900064CCFCED644CFDEE644EFEEF64CEFFD8F3
:1011A000DF8C1C8D1D8E1E8F1FEE547FFE228E1C29
:1011B0008F1D74A5F51EF51F227597A5E4F50EF594
:1011C0000DF50CF50BE47FCCFEFDFCAB0EAA0DA9D2
:1011D0000CA80BC31206D7501800E50E2401F50E1B
:1011E000E4350DF50DE4350CF50CE4350BF50B800D
:1011F000D4A2AF9202C2AF7597DE7597ADA20292EC
:10120000AF228F148D15E4F516E516FD7C00C3940E
:101210000C748094805033E51475F00CA42DFBEC15
:1012200035F0FAE51575F018A4AEF02BF519EE3A85
:10123000F518FE74002519F58274163EF583E493C3
:10124000F517FF12142A051680BF22E4F50CC3E53A
:101250000C940274809480502BE4FF120016AF0CA3
:101260001215E1121596E4F50BC3E50B946074803A
:1012700094805009E4FF12142A050B80EC121571BA
:10128000050C80CAE4FF120016E4FF0215E18F0B83
:101290008D0C8B0DE4F50FE50FC3950E5029AF0BA8
:1012A000120016AF0C1215E1121596E4F510E510B8
:1012B000C3950D5009E4FF12142A051080F0121591
:1012C00071050C050F80D0228F0B8A0C8B0DA905A0
:1012D000E4FDE50B89F0A4FFEDC39FE5F06480F821
:1012E000748098501CE50D2DF582E4350CF583E4EF
:1012F00093FF74782DF582E43400F583EFF00D80D0
:10130000D122C0E0C0D0D3E52F94A1E52E64809413
:10131000804005752D058010D3E52F9403E52E64DC
:101320008094804003752D04752E00752F00D0D059
:10133000D0E0328E0B8F0C7C007D3C120584AB0715
:10134000E4FD7F16120D54AE0BAF0C7C007D3C12F9
:1013500005848C0B8D0CAB0CE4FD7F40020E0C8ED3
:101360000B8F0C7C007D3C120584AB07E4FD7F16DF
:10137000120C9CAE0BAF0C7C007D3C1205848C0BD8
:101380008D0CAB0CE4FD7F3B020D54AF2DE4F52D2D
:10139000EF6401701EC2AFAD2FAC2ED2AFC3ED947F
:1013A00028EC940040027F02C3ED94A0EC9400402E
:1013B000027F0322E52114601B04701F750E027565
:1013C0000F187510297B0BE4FDFF1210C7AF25AE77
:1013D0002402135FAF27AE26121333221211B91263
:1013E00015CC12000E1215571215FC12157E12158F
:1013F000F41214E31215DA12000312154A1215F84A
:101400000215D3AF30EF7021E5216401701B7530F8
:10141000467D027F0B120F53750E02750F0075107B
:10142000787B0BE4FDFF12111A228F1AE4F51BC31F
:10143000E51B9408748094805012E51A339295123B
:1014400015EEE51A25E0F51A051B80E30215EE12EC
:10145000158AE4F50BC3E50B941D7480948050103D
:10146000E50B90173A93F50CFF12142A050B80E553
:10147000021571E4FFFD7C1EFEEEC394047480949B
:1014800080500FED2EF582E43CF583E4932FFF0EA0
:1014900080E7EFF404FF22C0E0E4F5FAF5F9C2D8E2
:1014A000152AE52A7005D205752A0AE52C60021571
:1014B0002CE52B6002152BD0E032C2EDD2EC30EDE2
:1014C000FDC2EDD2EC30EDFDAFBDAEBE0211AEC23D
:1014D000951215EDC294EF25E0FF3002010F1214B2
:1014E0002AD322E5C8540453C8FB75CBF875CA0645
:1014F00043C80442C8228D828C83C3EC941E4008EA
:1015000012152CEFF01215C322C0E0C28D052FE595
:101510002F7002052E752D01D0E03290008EE4F080
:10152000A37478F0A3E4F0A3740FF022C2AF438F4A
:1015300001538FFD8533B78534B722C2AF438F0285
:10154000438F018533B78534B72253F77F75DA4966
:1015500075FBE875FC032275BB1075BC2075B38163
:1015600043E8C0228F1612158AAF1612142A0215EC
:1015700071C2941215EDC2951215E8D2952243B1AD
:1015800083E5B15440644070F822C2027F3C1214DB
:10159000CFE4FF02142AC2027F3C1214CF7F400224
:1015A000142A8F828E8312153BE4F00215C3012D9D
:1015B00000012A0AC101C180008E318F32D204207D
:1015C00004FD22538FFE538FFDD2AF227580F77535
:1015D000A4082275E61075A8A62275890943881407
:1015E00022EF44B0FF0215641215EDD294221215B9
:1015F000E8C29422E4F5A92275E4DD2275D11C220B
:10160000F0FCFEFF0F07070FFFFEFCF00F3F7FFF10
:10161000F0E0E0F0FF7F3F0F00001C1E0EFEFFFF1A
:10162000FF0000000000000000FFFFFFFF000000BF
:101630001C1E0F070787C7FFFEFE7C00F0F8FCFEAC
:10164000EFE7E7E3E1E0E000000EC7C7C7C7E7FF49
:101650007E7E3C0070E0E1E1E1E1F3FF7F3F1E00B0
:101660000080C0F0783EFFFFFFFF00001E1F1F1D1F
:101670001C1CFFFFFFFF1C1C00FEFFFFC7C7C7C7E6
:10168000878700000071E1E1E1E1F3FF7F3F1F0088
:10169000E0F8FCFE9ECFC7C7C7C787000F3F7F7F1C
:1016A000F3E1E1F1FF7F3F1F0707070707C7F7FFD8
:1016B0007F1F07000000C0FCFFFF1F0300000000A9
:1016C000003C7EFEFFC7C7C7FF7E7E3C1C7E7FFFBF
:1016D000F3E1E1F3FF7F7F1CF8FCFEFF8F07078F2C
:1016E000FFFEFCF000F3E3E7E7E7F77B7F3F1F0730
:1016F00000000000000000000000000000000006E4
:1017000006060606060000000000000060F0F0601B
:10171000C0C000000000FFFF0406FEFC0000000047
:10172000000000000000FEFE0406FEFC0406FEFCB5
:101730000000000000CCDED6F666AED580A80FD340
:1017400000408D14200021005F220001A1C8DA02B0
:10175000D9F1DB202EA4A67F0808087F00003E41B7
:1017600041413E00007F404040007F4141633EFFD9
:10177000FFFFC7C7C7C7C7070000C0F8FF3F073F45
:10178000FFF8E00000000000FFFFFF000000FFFF87
:10179000FF00000000000000FFFFFFC7C7C7C7072A
:1017A000000000FFFFFF070707070F1EFEFCF07F8A
:1017B0007F7F010101010140787F7F0F0F0E0E0E28
:1017C0000F0F7F7F784000007F7F7F0000007F7FCA
:1017D0007F707070707000007F7F7F7171717170A9
:1017E0000000007F7F7F70707070783C1F0F03E0F7
:1017F000F8FC1E0F070707070F1EFEFCF000000095
:10180000FFFFFFC0E0F8FC3F0F070301070F1F3C7D
:101810007870707070783C1F0F070000007F7F7F2A
:1018200001030F1F7E7C706040033F63DBBB7BBB0B
:10183000DB633F03C0FCC6C3E1F4E1C3C6FCC000E8
:101840000000000000E0F8FFF8E060F8FFF860003A
:101850000103030301C0F03C8C868683FBFB030677
:10186000061C3CF0C0030F3C396161C1C1C1C060BE
:0518700060303C0F0395
:00000001FF
