:020000040000FA
:10000000020FEA75E34075E2032222021642E4F58C
:02001000A92223
:100013000214858F17E517540FFF12171FE517C436
:10002300540F4410FF02171F020AD112133C121778
:100033005D1217121200031216761217C212000E67
:1000430012161C12178112165412168612169612C5
:1000530016A61217C602177A0210E512002E1217FF
:100063008F12179612179D7F7B7E001216B67F9113
:100073007E001216C67F787E001216D61217B012B3
:1000830017B61217BCE4F53BF52375253CF52A7525
:100093002BB47F32FE1217671215F31211F490007E
:1000A3008EE0F526A3E0F527900090E0F528A3E085
:1000B300F5291207581215AB1213CE7FAF12171F73
:1000C3007510027511197512F37B0BE4FDFF121203
:1000D3004AAF27AE261214E27A1A7B097D027F0B00
:1000E30012144B12119C500FE52B9400E52A6480E7
:1000F30094804003121537D3E52B9400E52A6480DE
:100103009480400312155FE52B452A700B300508D8
:10011300120758120BD0C205C3E52A64809480509D
:10012300203004081209CB120BD0C204C3E52B9470
:10013300F6E52A6480947F5008D20474FFF52AF50B
:100143002B12150E8F0AD3E52B9400E52A648094B5
:1001530080501EEF640170191213CE1215377FE819
:100163007E03121767E4F53BF50AD205F52A752BD2
:10017300B4AF0A7E00EF6006752A00752BB4EF64F6
:10018300014E7003020233EF64034E7036AF23EF68
:1001930064026009752302E4F524020233AF24EFFD
:1001A300700BAF2EEF7006752401020233AF24EFFC
:1001B3006401600302025AAF2EEF600302025AF594
:1001C30024806DE50A64027046AF24EF6402601573
:1001D300AF24EF6403600EAF24EF64046007AF2421
:1001E300EF64057072C2AF853C0B853D0CD2AFD373
:1001F300E50C942AE50B9400405DC2AF853C0B856A
:100203003D0C753C00753D28D2AF752D048040AF81
:100213000A7E00EF6405701DAD24ED70077524029E
:10022300F52D800CAD24ED6401702C752404F52D9F
:10023300752E1E8022EF64044E701CE52314600AA1
:1002430004700CE4F526F5278005E4F528F52975F7
:100253002E1EAF24120CCCE52314603C14607D24C5
:10026300026003020358E527452660030203587F13
:10027300F47E01121767D292752301900090E0F586
:1002830028A3E0F5291213CE752A00752BB4AF29E4
:10029300AE281214B6020358E52945286003020369
:1002A30058C2927FC8FE121767E4F52390008EE0D0
:1002B300F526A3E0F52775253C1213CE752A0075A4
:1002C3002BB47510027511197512F37B0BE4FDFF46
:1002D30012124AAF27AE261214E28079AF24EF70D0
:1002E30031AF2DEF70028036AF2DC3EF94057480CC
:1002F300948050617510027511197512F37B0BE42C
:10030300FDFF12124A90008EE0FEA3E0FF1214E2FA
:10031300803CAF24EF6401703CAF2DEF70081213E3
:10032300CE752D08802FAF2DC3EF94057480948074
:10033300502375100275111A7512097B0BE4FDFF2A
:1003430012124A900090E0FEA3E0FF1214B67F0A57
:100353007E00121767E52424FD7003020431146044
:1003630068147003020496240360030200E6AF2EB0
:10037300EF70057524038059AF2DEF7022751002BD
:100383007511197512F37B0BFDFF12124A90008E43
:10039300E0FEA3E0FF1214E27510027B24805FAF3E
:1003A3002DC3EF94057480948040030200E690000F
:1003B3008EE0FEA3E0FF7C007D3C120556AB07E414
:1003C300FD7F16120DC202048CAF2EEF700B752445
:1003D30005F52D752E1E0200E6AF2DEF7027751063
:1003E3000275111A7512097B0BFDFF12124A900058
:1003F30090E0FEA3E0FF1214B67510027B29E4FD22
:100403007F160204CDAF2DC3EF9405748094804012
:10041300030200E6900090E0FEA3E0FF7C007D3C39
:10042300120556AB07E4FD7F16120E7A805BAF2EE2
:10043300EF7004F5238061AF2DEF70267510027500
:1004430011197512F37B0BFDFF12124A90008EE017
:10045300FEA3E0FF1214E27510027B24E4FD7F3B50
:100463008068AF2DC3EF940574809480400302002D
:10047300E690008EE0FEA3E0FF7C007D3C12055673
:10048300AB05E4FD7F3B120E7A7F0A7E00121767ED
:100493000200E6AF2EEF700912114275EF1202004F
:1004A300E6AF2DEF702D75100275111A7512097BC9
:1004B3000BFDFF12124A900090E0FEA3E0FF12141E
:1004C300B67510027B1FE4FD7F40121411752D08D1
:1004D3000200E6AF2DC3EF940574809480400302BD
:1004E30000E6900090E0FEA3E0FF7C007D3C120557
:1004F30056AB05E4FD7F40120F327F0A7E001217D0
:10050300670200E6BB010CE58229F582E5833AF533
:1005130083E0225006E92582F8E622BBFE06E925A0
:1005230082F8E222E58229F582E5833AF583E493B2
:1005330022F8BB010DE58229F582E5833AF583E8CC
:10054300F0225006E92582C8F622BBFE05E9258282
:10055300C8F222BC000BBE0029EF8DF084FFADF082
:1005630022E4CCF875F008EF2FFFEE33FEEC33FCFA
:10057300EE9DEC984005FCEE9DFE0FD5F0E9E4CE30
:10058300FD22EDF8F5F0EE8420D21CFEADF075F0FF
:1005930008EF2FFFED33FD4007985006D5F0F22208
:1005A300C398FD0FD5F0EA22C2D5EC30E709B2D5E6
:1005B300E4C39DFDE49CFCEE30E715B2D5E4C39F94
:1005C300FFE49EFE120556C3E49DFDE49CFC8003FC
:1005D30012055630D507C3E49FFFE49EFE22E88F41
:1005E300F0A4CC8BF0A42CFCE98EF0A42CFC8AF0B4
:1005F300EDA42CFCEA8EF0A4CDA8F08BF0A42DCCB6
:100603003825F0FDE98FF0A42CCD35F0FCEB8EF00E
:10061300A4FEA9F0EB8FF0A4CFC5F02ECD39FEE4F4
:100623003CFCEAA42DCE35F0FDE43CFC2275F00839
:10063300758200EF2FFFEE33FECD33CDCC33CCC527
:100643008233C5829BED9AEC99E58298400CF58242
:10065300EE9BFEED9AFDEC99FC0FD5F0D6E4CEFBB4
:10066300E4CDFAE4CCF9A88222B800C1B90059BAA2
:10067300002DEC8BF084CFCECDFCE5F0CBF97818D0
:10068300EF2FFFEE33FEED33FDEC33FCEB33FB10CA
:10069300D703994004EB99FB0FD8E5E4F9FA2278E4
:1006A30018EF2FFFEE33FEED33FDEC33FCC933C9F6
:1006B30010D7059BE99A4007EC9BFCE99AF90FD800
:1006C300E0E4C9FAE4CCFB2275F010EF2FFFEE3320
:1006D300FEED33FDCC33CCC833C810D7079BEC9A5F
:1006E300E899400AED9BFDEC9AFCE899F80FD5F0E8
:1006F300DAE4CDFBE4CCFAE4C8F922EB9FF5F0EAA7
:100703009E42F0E99D42F0E89C45F022F5F0C58257
:10071300A4C582C5F0C583A42583F58322A42582BD
:10072300F582E5F03583F58322EF4E6012EF600129
:100733000EEDBB010B89828A83F0A3DFFCDEFA2274
:1007430089F05007F709DFFCA9F022BBFEFCF3098F
:10075300DFFCA9F022C3E5279428E5269400500680
:10076300AE26AF2780047E007F288E0F8F107E0079
:100773007F787D007B017A00790012072CE4F50D68
:10078300F50EC3E50E9510E50D950F40030208AE77
:100793001212EFEE3395E0FDFCE47B60FAF9F812F8
:1007A30005E1E47BFF7A7FF9F812066C8F111212D0
:1007B300EFEE3395E0FDFCE47B10FAF9F81205E166
:1007C300E47BFF7A7FF9F812066CE4FDFCC3ED9538
:1007D3000EEC950D507390000075F003ED12072099
:1007E300EC75F003A42583F583E065117054900044
:1007F3000175F003ED120720EC75F003A42583F5D2
:1008030083E06F703D1212EFEE3395E0FDFCE47B65
:1008130060FAF9F81205E1E47BFF7A7FF9F8120632
:100823006C8F111212EFEE3395E0FDFCE47B10FAAE
:10083300F9F81205E1E47BFF7A7FF9F812066CE41C
:10084300FCFD0DBD00010C808490000075F003E5F4
:100853000E120720E50D75F003A42583F583E5113A
:10086300F090000175F003E50E120720E50D75F019
:1008730003A42583F583EFF0D39407748094807FDA
:100883000040027F60E5112FFF90000275F003E541
:100893000E120720E50D75F003A42583F583EFF011
:1008A300050EE50E7002050D020785AF100208B3B1
:1008B300E4FEEF14FDEEC39D40030209CAC207E440
:1008C300FDC3EF9E14FCEDC39C40030209C3ED7509
:1008D300F003A42405F582E43400F583E0FCED7510
:1008E300F003A42402F582E43400F583E0D39C50A2
:1008F300030209BFED75F003A42400F582E434007C
:10090300F583E0F512ED75F003A42403F582E434D6
:1009130000F583E0FCED75F003A42400F582E434D4
:1009230000F583ECF0ED75F003A42403F582E434C1
:1009330000F583E512F0ED75F003A42401F582E4DC
:100943003400F583E0F512ED75F003A42404F58279
:10095300E43400F583E0FCED75F003A42401F58293
:10096300E43400F583ECF0ED75F003A42404F58280
:10097300E43400F583E512F0ED75F003A42402F5E9
:1009830082E43400F583E0F512ED75F003A4240549
:10099300F582E43400F583E0FCED75F003A4240252
:1009A300F582E43400F583ECF0ED75F003A424053F
:1009B300F582E43400F583E512F0D2070D0208C492
:1009C3003007040E0208B522C3E5279428E52694D0
:1009D300007F285002AF278F0FC2061212EFAB071A
:1009E300AA06EA3395E0F9F8AF0FE4FCFDFE120521
:1009F300E1E47BFF7A7FF9F812066C8F0EE50EB502
:100A03000F05E50F14F50E1212EFEE3395E0FDFC22
:100A1300E47B60FAF9F81205E1E47BFF7A7FF9F8E9
:100A230012066C8F0D1212EFEE3395E0FDFCE47BA2
:100A330010FAF9F81205E1E47BFF7A7FF9F8120660
:100A43006CE50D64606005EF64107003150D1FE421
:100A5300FEEEC3950F5029EE75F003A42400F58232
:100A6300E43400F583E0B50D14EE75F003A424011E
:100A7300F582E43400F583E0B50702D2060E80D197
:100A830020064AE50E75F003A42400F582E4340041
:100A9300F583E50DF0E50E75F003A42401F582E47A
:100AA3003400F583EFF0D39407748094807F004083
:100AB300027F60E50D2FFFE50E75F003A42402F518
:100AC30082E43400F583EFF0AF0F1208B322C0E0E5
:100AD300C0D075D000C000300812E540453F600A21
:100AE300E54015407006153F8002C2081522E52235
:100AF300701A752264152CE52C7005D200752C0A2A
:100B0300E52E6002152EE52D6002152DC3E5349503
:100B130030E52F6480F8E533648098500A0534E5A6
:100B230034701D05338019D3E5349530E52F648087
:100B3300F8E533648098400DE534153470021533BD
:100B4300D20143DA01C3E5369532E5316480F8E535
:100B530035648098500A0536E536701D05358019D1
:100B6300D3E5369532E5316480F8E5356480984005
:100B73000DE536153670021535D20243DB01C3E5A8
:100B8300389534E5336480F8E537648098500A0576
:100B930038E538701D05378019D3E5389534E533CA
:100BA3006480F8E537648098400DE53815387002A5
:100BB3001537D20343DC01D3E53E9400748094805F
:100BC3004002153EC2CFD000D0D0D0E032E4F50EC3
:100BD300C3E5279428E52694007F285002AF278F8A
:100BE3000FE4FF120016E4FF121788121745E4F50D
:100BF3000DC3E50D94C0748094804003020CC9E4D6
:100C0300F510F511E50EC3950F5012E50E75F003BF
:100C1300A42402F582E43400F583E0F510E50D65C4
:100C2300106003020CBFE50E75F003A42401F582E6
:100C3300E43400F583E0D39407748094807F00400C
:100C4300027F08E50E75F003A42401F582E4340065
:100C5300F583E0C39FFFF87401088002C333D8FC17
:100C6300F511050EE50E650F6052E50E75F003A450
:100C73002402F582E43400F583E06510703EE50E4E
:100C830075F003A42401F582E43400F583E0D394E2
:100C930007748094807F0040027F08E50E75F0039F
:100CA300A42401F582E43400F583E0C39FFFF874C4
:100CB30001088002C333D8FC421180A6AF1112157C
:100CC30086050D020BF402172CEF24FD603E146021
:100CD3007B147003020D7D24036003020DC1900099
:100CE3008EE0FEA3E0FF7C007D3C120556AB05E0E1
:100CF300243CF090008EE03400F0D3A3E0946F9096
:100D0300008EE094175003020DC1806990008EE0BD
:100D1300FEA3E0FF7C007D3C120556AB07E004F028
:100D2300700690008EE004F090008EE0FEA3E0FFDA
:100D33007C007D3C120556EBFDD3EF9DEE94004005
:100D43007DEB75F03CA4FF90008E806C900090E0EA
:100D5300FEA3E0FF7C007D3C120556AB05E0243C7E
:100D6300F0900090E03400F0D3A3E0946F900090F3
:100D7300E094174049EBFFE48040900090E0FEA32D
:100D8300E0FF7C007D3C120556AB07E004F07006E3
:100D9300900090E004F0900090E0FEA3E0FF7C0060
:100DA3007D3C120556EBFDD3EF9DEE9400400FEB17
:100DB30075F03CA4FF900090E5F0F0A3EFF0228FD4
:100DC3000F8D10EBFF7E00C39464748094805023D6
:100DD3008E148F15AE147C007D0A1205AB8F12AEF4
:100DE30014AF157C007D0A1205AB8C148D15851587
:100DF30013800675120A75130AE4F514F515AF0F7F
:100E0300120016E5102515FF121788121745AF15A6
:100E1300AD12121385E4FF121586AF15AD1312132D
:100E230085E4FF121586E4F511C3E5119406748079
:100E33009480502C851582851483740612070FE560
:100E4300822511F582E43583F583E58224DAF58280
:100E5300E5833418F583E493FF121586051180C9E1
:100E630012172C0515E51570020514C39404E51437
:100E7300648094804088228F0F8D10EBFF7E00C327
:100E830094647480948050238E148F15AE147C0068
:100E93007D0A1205AB8F12AE14AF157C007D0A12CA
:100EA30005AB8C148D15851513800675120A751301
:100EB3000AE4F514F515AF0F120016E5102515FF1A
:100EC300121788121745AF15AD12121385E4FF12DE
:100ED3001586AF15AD13121385E4FF121586E4F5DD
:100EE30011C3E511940A74809480502C8515828572
:100EF3001483740A12070FE5822511F582E4358302
:100F0300F583E58224E6F582E5833418F583E493DB
:100F1300FF121586051180C912172C0515E51570EA
:100F2300020514C39404E514648094804088228FDE
:100F33000F8D10EBFF7E00C3946474809480502364
:100F43008E148F15AE147C007D0A1205AB8F12AE82
:100F530014AF157C007D0A1205AB8C148D15851515
:100F630013800675120A75130AE4F514F515AF0F0D
:100F7300120016E5102515FF121788121745AF1535
:100F8300AD12121385E4FF121586AF15AD131213BC
:100F930085E4FF121586E4F511C3E5119405748009
:100FA3009480502C851582851483740512070FE5F0
:100FB300822511F582E43583F583E58224FAF582EF
:100FC300E5833418F583E493FF121586051180C970
:100FD30012172C0515E51570020514C39404E514C6
:100FE3006480948040882212000A787FE4F6D8FD5A
:100FF30075814002103402005EE493A3F8E493A3E6
:101003004003F68001F208DFF48029E493A3F85447
:1010130007240CC8C333C4540F4420C8834004F4CA
:1010230056800146F6DFE4800B01020408102040DD
:1010330080901704E47E019360BCA3FF543F30E526
:1010430009541FFEE493A360010ECF54C025E06052
:10105300A840B8E493A3FAE493A3F8E493A3C8C520
:1010630082C8CAC583CAF0A3C8C582C8CAC583CA11
:10107300DFE9DEE780BEA905E4FDEDC39F5062C250
:1010830006C207E4FCECC3995040EC8FF0A42D2476
:1010930078F582E43400F583E0FED3947F74809482
:1010A300804003D38001C39206EE25E0FEA207E44D
:1010B300334206EC8FF0A42D2478F582E43400F556
:1010C30083EEF0A20692070C80BB74782DF582E4C0
:1010D3003400F583E0FCA207E433FBEC4BF00D8016
:1010E3009922C0E0C0D0300319C203C2DA53DCFE38
:1010F300C3E49538F50974049537F5088509EB853C
:1011030008EC300219C202C2D953DBFEC3E49536A0
:10111300F50974049535F5088509E98508EA300170
:1011230019C201C2D853DAFEC3E49534F509740435
:101133009533F5088509FB8508FCD0D0D0E03275DE
:10114300140175150075168E75171E751800751E1A
:10115300A5751FF17F007E1E121751E4F513C3E539
:10116300139404748094805020AB14AA15A9168597
:101173001382758300120507FFE5132518FDE43577
:1011830017FC12162F051380D51215CF7D047C1E74
:1011930012162FE4F51EF51F22C206300050C200BE
:1011A300E52B152B7002152AE52314602C04703EE1
:1011B300D3E52594007480948040041525802F7511
:1011C300253CD3E5279400E52694004008E5271540
:1011D3002770021526D2068015D3E5299400E52849
:1011E30094004008E529152970021528D206A206A5
:1011F30022750E01750F0075108E75111E75120084
:101203001215CF901E04E4936F600D1216657F6470
:101213007E00121767121142E4F50DC3E50D940425
:10122300748094805020E512250DF582E43511F584
:1012330083E493AB0EAA0FA910850D827583001268
:101243000534050D80D5228F0D8D0E8B0FE4F5151A
:10125300F516F513E513C39510503EAF0D120016A6
:10126300AF0E121788121745E4F514E514C3950F52
:10127300501EE5122516F582E5113515F583E49325
:10128300FF1215860516E51670020515051480DB99
:1012930012172C050E051380BB228F0D8D0E8B0F9D
:1012A300E4F515F516F513E513C39510503DAF0D91
:1012B300120016AF0E121788121745E4F514E51441
:1012C300C3950F501DE5122516F582E5113515F569
:1012D30083E0FF1215860516E51670020515051441
:1012E30080DC12172C050E051380BC22AC37AD38F9
:1012F300AE39AF3A7810EC4D4E4F70047CA57DA506
:10130300C3EC13FCED13FDEE13FEEF13FF5010ECD3
:1013130064CCFCED644CFDEE644EFEEF64CEFFD86E
:10132300DF8C378D388E398F3AEE547FFE228E371D
:101333008F3874A5F539F53A227597A5E4F510F5BC
:101343000FF50EF50DE47FCCFEFDFCAB10AA0FA943
:101353000EA80DC31206FE501800E5102401F51067
:10136300E4350FF50FE4350EF50EE4350DF50D807C
:10137300D4A2AF9206C2AF7597DE7597ADA206925F
:10138300AF228F168D17E4F518E518FD7C00C39482
:101393000C748094805033E51675F00CA42DFBEC8F
:1013A30035F0FAE51775F018A4AEF02BF51BEE3AFD
:1013B300F51AFE74CA251BF58274173EF583E49370
:1013C300F519FF121586051880BF22E4F50EC3E553
:1013D3000E940474809480502BE4FF120016AF0E19
:1013E300121788121745E4F50DC3E50D9480748038
:1013F30094805009E4FF121586050D80EC12172C1A
:10140300050E80CAE4FF120016E4FF0217888F0D51
:101413008D0E8B0FE4F511E511C395105029AF0D17
:10142300120016AF0E121788121745E4F512E512D3
:10143300C3950F5009E4FF121586051280F01217A9
:101443002C050E051180D0228F0D8A0E8B0FA90556
:10145300E4FDE50D89F0A4FFEDC39FE5F06480F89A
:10146300748098501CE50F2DF582E4350EF583E466
:1014730093FF74782DF582E43400F583EFF00D804B
:10148300D122C0E0C0D0D3E53D94A1E53C64809473
:10149300804005753B058010D3E53D9403E53C642E
:1014A3008094804003753B04753C00753D00D0D0AB
:1014B300D0E0328E0D8F0E7C007D3C1205ABAB0766
:1014C300E4FD7F16120E7AAE0DAF0E7C007D3C124A
:1014D30005AB8C0D8D0EAB0EE4FD7F40020F328EFB
:1014E3000D8F0E7C007D3C1205ABAB07E4FD7F1630
:1014F300120DC2AE0DAF0E7C007D3C1205AB8C0D00
:101503008D0EAB0EE4FD7F3B020E7AAF3BE4F53B61
:10151300EF6401701EC2AFAD3DAC3CD2AFC3ED94DE
:1015230028EC940040027F02C3ED94A0EC940040A9
:10153300027F0322E52314601B04701F75100275DC
:1015430011197512F37B0BE4FDFF12124AAF27AE9C
:10155300260214E2AF29AE281214B622AF3EEF7072
:1015630021E5236401701B753E467D027F0B12103B
:10157300797510027511007512787B0BE4FDFF126B
:10158300129D228F1CE4F51DC3E51D9408748094FD
:10159300805012E51C3392811217AAE51C25E0F551
:1015A3001C051D80E30217AA121739E4F50DC3E5E4
:1015B3000D941D748094805010E50D90190493F5DB
:1015C3000EFF121586050D80E502172CE4FFFD7C46
:1015D3001EFEEEC3940474809480500FED2EF582AA
:1015E300E43CF583E4932FFF0E80E7EFF404FF223E
:1015F300C2EDD2EC30EDFDC2EDD2EC30EDFDAFBD6E
:10160300AEBE021331C2811217A9C282EF25E0FFD9
:101613003006010F121586D322E5C8540453C8FBC4
:1016230075CBF875CA0643C80442C8228D828C83E1
:10163300C3EC941E40081216E6EFF012177122C095
:10164300E0C28D053DE53D7002053C753B01D0E0F0
:1016530032C2DE75D90875960753F7F843F702D2FD
:10166300DE2290008EE4F0A37478F0A3E4F0A37478
:101673000FF02275BB0B75BC1975B38175B99E4309
:10168300E8C02253F77F75DA02E4F5FC43F7805391
:10169300F77F2253F77F75DB42E4F5EA43F7805384
:1016A300F77F2253F77F75DC42E4F5EC43F7805371
:1016B300F77F22C2AF8E2F8F30D20243DA01D2D806
:1016C300D2AF22C2AF8E318F32D20243DB01D2D9E5
:1016D300D2AF22C2AF8E338F34D20343DC01D2DACE
:1016E300D2AF22C2AF438F01538FFD851EB7851F33
:1016F300B722C2AF438F02438F01851EB7851FB741
:1017030022013B00012C0A012264C105C18400753A
:10171300904B75A53775F27775D508228F18121778
:1017230039AF1812158602172CC2821217A9C2816B
:101733001217A4D28122C2067F3C121608E4FF02CC
:101743001586C2067F3C1216087F400215868F82DB
:101753008E831216F5E4F002177175A48075F18F6C
:1017630075D47F228E3F8F40D2082008FD22538FED
:10177300FE538FFDD2AF2275E61075A8A622758998
:101783000943881422EF44B0FF02171F43DA404392
:10179300A4802243DB4043A5012243DC4043A5024E
:1017A300221217A9D282221217A4C2822275A40080
:1017B300C2872275A500C2902275A500C291227529
:1017C300D19C2275E48822F0FCFEFF0F07070FFF70
:1017D300FEFCF00F3F7FFFF0E0E0F0FF7F3F0F00E4
:1017E300001C1E0EFEFFFFFF0000000000000000B3
:1017F300FFFFFFFF0000001C1E0F070787C7FFFE48
:10180300FE7C00F0F8FCFEEFE7E7E3E1E0E0000038
:101813000EC7C7C7C7E7FF7E7E3C0070E0E1E1E18A
:10182300E1F3FF7F3F1E000080C0F0783EFFFFFF23
:10183300FF00001E1F1F1D1C1CFFFFFFFF1C1C00C1
:10184300FEFFFFC7C7C7C7878700000071E1E1E15B
:10185300E1F3FF7F3F1F00E0F8FCFE9ECFC7C7C741
:10186300C787000F3F7F7FF3E1E1F1FF7F3F1F0752
:1018730007070707C7F7FF7F1F07000000C0FCFF2C
:10188300FF1F0300000000003C7EFEFFC7C7C7FF29
:101893007E7E3C1C7E7FFFF3E1E1F3FF7F7F1CF83C
:1018A300FCFEFF8F07078FFFFEFCF000F3E3E7E783
:1018B300E7F77B7F3F1F07000000000000000000E8
:1018C30000000000000006060606060600000000F1
:1018D30000000060F0F060C0C000000000FFFF04E3
:1018E30006FEFC00000000000000000000FEFE04F5
:1018F30006FEFC0406FEFC0000000000CCDED6F66B
:1019030066AED580A80FD300408D14200021007F40
:10191300220003A1C8DA02D9F1DB202EA4A67F0896
:1019230008087F00003E4141413E00007F404040A7
:10193300007F4141633EFFFFFFC7C7C7C7C707001B
:1019430000C0F8FF3F073FFFF8E00000000000FF82
:10195300FFFF000000FFFFFF00000000000000FF8A
:10196300FFFFC7C7C7C707000000FFFFFF07070741
:10197300070F1EFEFCF07F7F7F010101010140780C
:101983007F7F0F0F0E0E0E0F0F7F7F784000007FBB
:101993007F7F0000007F7F7F707070707000007F1A
:1019A3007F7F71717171700000007F7F7F70707035
:1019B30070783C1F0F03E0F8FC1E0F070707070FA3
:1019C3001EFEFCF0000000FFFFFFC0E0F8FC3F0F2D
:1019D300070301070F1F3C7870707070783C1F0F6E
:1019E300070000007F7F7F01030F1F7E7C70604034
:1019F300033F63DBBB7BBBDB633F03C0FCC6C3E1CD
:101A0300F4E1C3C6FCC0000000000000E0F8FFF8EA
:101A1300E060F8FFF860000103030301C0F03C8CB1
:101A2300868683FBFB0306061C3CF0C0030F3C3990
:0C1A33006161C1C1C1C06060303C0F03A4
:00000001FF
