:020000040000FA
:1000000002082EC2DE75D90CD2DE22020D5E75E327
:10001000402222020C6A8F1BE51B540FFF120DBBFE
:10002000E51BC4540F4410FF020DBB020D08120A59
:10003000E3120E18120E2612000E120D70120E5937
:10004000120DD5120E55120D38120E2D120003127C
:100050000DAE120E5D020E1FC10300020D801200D4
:100060002EE4F528F521F522F523F524F52575264E
:100070000A7527057F32FE120E051209E6120CC022
:10008000120BB97FAF120DBB1208BDC3EF941CEE6B
:100090006480948C5034C3EF94B8EE6480948B5099
:1000A0001475140275150E7516617B7E7D017F0136
:1000B000120A9080FE75140275150F75165D7B5738
:1000C0007D017F14120A900202CA120A3C8F0AAF05
:1000D00025EF7038E526C395274031E4F526120553
:1000E000658E088F09D3E50994C8E5086480948F6C
:1000F0004007752701C2038013AF27EF6401700723
:10010000D2037521048002C203752705AF24D3EF03
:10011000943C7480948040111208BDC3EF941CEE8F
:100120006480948C500375EF12E50A6401703FAF50
:1001300021EF640170057521028003752101120B06
:10014000B975140275151075160B7B397D01E4FF26
:10015000120A90AF21EF6401700DAF22EF75F064C9
:10016000A4FFAEF01206627FFA7E000202CEE50A1C
:10017000640360030202D4F50DF50ED200F50CC342
:10018000E50C9403748094805077E4F50BC3E50B81
:10019000940A748094805042AF21EF640170057519
:1001A00021038003752101120BB9AF21EF640170A7
:1001B0001175140275151075160B7B397D01FF1230
:1001C0000A90AF22EF75F064A4FFAEF01206627FD2
:1001D000F47E01120E05050B80B31205658E0F8F9C
:1001E00010D3E51094A0E50F6480948F4002C20004
:1001F000E510250EF50EE50F350DF50D050C020188
:100200007F7514047B42E4FD7F3E120BFCAE0DAF04
:100210000E7C007D0312039B8E0D8F0E20000302C7
:1002200002B8AF22EF25E025E02400F582E4340097
:10023000F583E50DF0A3E50EF0AF22C3EF9405744E
:10024000809480505FAF22EF25E025E02404F58202
:10025000E43400F583E0FEA3E0FFAD22ED25E025C8
:10026000E02400F582E43400F583E0FCA3E0C39FC2
:10027000FFEC9EFE3395E0FDFCE4FB7A01F9F812F9
:1002800003D1E4751964F518F517F516120C36AD9F
:1002900022ED25E025E02402F582E43400F583EE2A
:1002A000F0A3EFF012098C75140275151175166C18
:1002B0007B1D7D017F43800F751402751510751627
:1002C000EC7B407D017F40120A907FB87E0B120EBE
:1002D000050200CAE50A6402702BAF25EF7016759F
:1002E00025017514017515107516D47B18FDFF12C4
:1002F0000A900200CAE4F5257514017B18FDFF126F
:100300000BFC0200CAAF21EF6003120BB9E4F52128
:1003100075140375151075167D7B1D7D01FF120A7E
:10032000903003147514027515117516A67B357D72
:10033000017F44120A90800AAF09AE0812074C12DE
:1003400006627F647E00120E050200CABB010CE546
:100350008229F582E5833AF583E0225006E9258279
:10036000F8E622BBFE06E92582F8E222E58229F5BD
:1003700082E5833AF583E49322F8BB010DE58229F7
:10038000F582E5833AF583E8F0225006E92582C834
:10039000F622BBFE05E92582C8F222C2D5EC30E781
:1003A00009B2D5E4C39DFDE49CFCEE30E715B2D55F
:1003B000E4C39FFFE49EFE120510C3E49DFDE49C90
:1003C000FC800312051030D507C3E49FFFE49EFEB6
:1003D00022E88FF0A4CC8BF0A42CFCE98EF0A42CA6
:1003E000FC8AF0EDA42CFCEA8EF0A4CDA8F08BF0F2
:1003F000A42DCC3825F0FDE98FF0A42CCD35F0FCF0
:10040000EB8EF0A4FEA9F0EB8FF0A4CFC5F02ECDBB
:1004100039FEE43CFCEAA42DCE35F0FDE43CFC22A0
:1004200075F008758200EF2FFFEE33FECD33CDCC93
:1004300033CCC58233C5829BED9AEC99E582984016
:100440000CF582EE9BFEED9AFDEC99FC0FD5F0D6F3
:10045000E4CEFBE4CDFAE4CCF9A88222B800C1B91D
:100460000059BA002DEC8BF084CFCECDFCE5F0CB5B
:10047000F97818EF2FFFEE33FEED33FDEC33FCEB94
:1004800033FB10D703994004EB99FB0FD8E5E4F94F
:10049000FA227818EF2FFFEE33FEED33FDEC33FC3C
:1004A000C933C910D7059BE99A4007EC9BFCE99A30
:1004B000F90FD8E0E4C9FAE4CCFB2275F010EF2F75
:1004C000FFEE33FEED33FDCC33CCC833C810D70775
:1004D0009BEC9AE899400AED9BFDEC9AFCE899F8B0
:1004E0000FD5F0DAE4CDFBE4CCFAE4C8F922EB9FB7
:1004F000F5F0EA9E42F0E99D42F0E89C45F022F5D5
:10050000F0C582A4C582C5F0C583A42583F58322E6
:10051000BC000BBE0029EF8DF084FFADF022E4CCCF
:10052000F875F008EF2FFFEE33FEEC33FCEE9DEC98
:10053000984005FCEE9DFE0FD5F0E9E4CEFD22EDDE
:10054000F8F5F0EE8420D21CFEADF075F008EF2F28
:10055000FFED33FD4007985006D5F0F222C398FD19
:100560000FD5F0EA2275BB07E4F516F515F514F57D
:1005700013F51AF519F518F517F511F512120E42C3
:10058000D290C291C2EDD2ECE4FBFA30EDFD85BE13
:100590001185BD12B290B291C2EDD2ECAE11EE3324
:1005A00095E0FDFCE5162512F516E5153EF515E579
:1005B000143DF514E5133CF51330EDFD85BE1185B2
:1005C000BD12B290B291C2EDD2ECAE11EE3395E015
:1005D000FDFCE51A2512F51AE5193EF519E5183D59
:1005E000F518E5173CF5170BBB00010ABA019CBBD7
:1005F000F499120E3BAF16AE15AD14AC13E47BF4B8
:100600007A01F9F8120B758F168E158D148C13E480
:100610007BF47A01F9F8AF1AAE19AD18AC17120BCA
:1006200075A804A905AA06C374FF9FF51A740F9A4A
:10063000F519E499F518E498F517C3E516951AFF2E
:10064000E5159519FEE5149518FDE5139517FCE4DD
:100650007B02FAF9F8120B75C3E5169FFFE5159EAC
:10066000FE22C3EF94E8EE64809483503D8E158F94
:10067000167C007D6412039B8F12AE15AF167C00B2
:100680007D6412039B8C158D16AE15AF167C007D14
:100690000A12039B8F13AE15AF167C007D0A12035E
:1006A0009B8C158D16851614800975120A75130A10
:1006B00075140AE4F515F5167F3E120016AF1612F2
:1006C0000E34120DEDAF16AD12120B2CE4FF120C0E
:1006D0009BE4FF120C9BE4F511C3E51194067480B2
:1006E0009480502C85168285158374061204FFE5CC
:1006F000822511F582E43583F583E5822428F5828D
:10070000E5833415F583E493FF120C9B051180C932
:10071000E4FF120C9BE4FF120C9BAF16AD13120BFF
:100720002CE4FF120C9BE4FF120C9BAF16AD1412CD
:100730000B2C120DC80516E51670020515C394049E
:10074000E5156480948050030206B822D39000011E
:10075000E09FEE6480F8900000E0648098500FC342
:10076000EF94A0EE6480948F5004E4FEFF22C3EF68
:1007700094A0EE6480948F400122E4F511AD117CC9
:1007800000C3ED9405748094805023E51125E02585
:10079000E02404F582E43400F583E0FAA3E0C39F8B
:1007A000EE6480F8EA6480984004051180CFED641F
:1007B000054C7014C3900015E09FFF900014E09E5C
:1007C000CF24F4CF3401FE22E51125E025E02404F6
:1007D000F582E43400F583E0FCA3E0FDC3EF9DFF68
:1007E000EE9CFE3395E0FDFCE4FB7A01F9F8120380
:1007F000D1C006C007E51125E025E02402F582E41A
:100800003400F583E0FEA3E0FFE48F198E18F5179E
:10081000F516D007D006120C36C374649FFDE49E13
:10082000FCE51175F064A42DFFE5F03CFE221200FA
:1008300012787FE4F6D8FD75812E02087802005EFA
:10084000E493A3F8E493A34003F68001F208DFF4F5
:100850008029E493A3F85407240CC8C333C4540F6D
:100860004420C8834004F456800146F6DFE4800B40
:100870000102040810204080900058E47E0193603B
:10088000BCA3FF543F30E509541FFEE493A360016D
:100890000ECF54C025E060A840B8E493A3FAE493D7
:1008A000A3F8E493A3C8C582C8CAC583CAF0A3C885
:1008B000C582C8CAC583CADFE9DEE780BEE4F51495
:1008C000F513F512F51175BB03FBFAC2EDD2EC304E
:1008D000EDFD85BE1585BD16AE15EE3395E0FDFC2C
:1008E000E5142516F514E5133EF513E5123DF51252
:1008F000E5113CF5110BBB00010ABA01CEBBF4CBEC
:10090000E47BF47A01F9F8AF14AE13AD12AC111216
:100910000B758E158F16EE3395E0FDFCE47BEE7AB9
:1009200010F9F81203D1E47BFC7A0FF9F8020B7589
:10093000740F900000F0A3F0A3741AF0A37454F0A5
:10094000A37404F0A374C6F0A37405F0A37478F044
:10095000A37402F0A374A3F0A37401F0A37471F064
:10096000A37402F0A37413F0A3E4F0A374CFF0A374
:100970007401F0A374C2F0A3E4F0A374A9F0A3740B
:1009800001F0A37480F0E4A3F0A3F02275180175C0
:100990001900751A00751B1E751C00752DA5752E86
:1009A000F17F007E1E120DF9E4F517C3E5179418C8
:1009B000748094805020AB18AA19A91A85178275E3
:1009C000830012034CFFE517251CFDE4351BFC12C8
:1009D0000D4B051780D5120CE47D187C1E120D4BB3
:1009E000E4F52DF52E2275120175130075140075AE
:1009F000151E751600120CE4901E18E4936F600D1E
:100A00001209307F647E00120E0512098CE4F51184
:100A1000C3E5119418748094805020E5162511F5D3
:100A200082E43515F583E493AB12AA13A91485115A
:100A300082758300120379051180D522AD28AF2875
:100A4000EF64017045C2AFAF2AAE29D2AFC3EF94B5
:100A5000A1EE9400402CEF245FFFEE34FFFEEF7810
:100A600006CEC313CE13D8F9F522D394057480941F
:100A7000804014C2AF752900752AA1D2AFE4F522D7
:100A80008005E4F522FF227F0122E4F528AF05224C
:100A90008F118D128B13E4F519F51AF517E517C3AD
:100AA0009514503EAF11120016AF12120E34120DF3
:100AB000EDE4F518E518C39513501EE516251AF553
:100AC00082E5153519F583E493FF120C9B051AE5B1
:100AD0001A70020519051880DB120DC805120517DA
:100AE00080BB227597A5E4F514F513F512F511E412
:100AF0007FCCFEFDFCAB14AA13A912A811C31204EB
:100B0000EE501800E5142401F514E43513F513E450
:100B10003512F512E43511F51180D4A2AF9201C25D
:100B2000AF7597DE7597ADA20192AF228F178D1822
:100B3000E4F519E519FD7C00C3941274809480508B
:100B400033E51775F012A42DFBEC35F0FAE51875B6
:100B5000F048A4AEF02BF51CEE3AF51BFE74102500
:100B60001CF58274123EF583E493F51AFF120C9B78
:100B7000051980BF22C2D5E830E70FB2D5E4C39B88
:100B8000FBE49AFAE499F9E498F8EC30E717B2D567
:100B9000120BAB12045CE4C39BFBE49AFAE499F9F0
:100BA000E498F8800312045C30D50DE4C39FFFE4A1
:100BB0009EFEE49DFDE49CFC22E4F512C3E5129444
:100BC0000474809480502BE4FF120016AF12120EB2
:100BD00034120DEDE4F511C3E51194807480948016
:100BE0005009E4FF120C9B051180EC120DC8051290
:100BF00080CAE4FF120016E4FF020E348F118D123A
:100C00008B13E4F515E515C395145029AF111200A7
:100C100016AF12120E34120DEDE4F516E516C3955B
:100C2000135009E4FF120C9B051680F0120DC80545
:100C300012051580D0228F158E148D138C12E47B33
:100C400002FAF9F8AF19AE18AD17AC1612045CEF42
:100C50002515FFEE3514FEED3513FDEC3512FCAB1A
:100C600019AA18A917A81602045CC0E0C0D0D3E5E1
:100C70002A94A1E52964809480400575280380109A
:100C8000D3E52A9403E52964809480400375280203
:100C9000752900752A00D0D0D0E0328F1DE4F51EF2
:100CA000C3E51E9408748094805012E51D3392951C
:100CB000120E4FE51D25E0F51D051E80E3020E4FC7
:100CC000120DE1E4F511C3E511941874809480507D
:100CD00010E51190154093F512FF120C9B05118041
:100CE000E5020DC8E4FFFD7C1EFEEEC3941874807F
:100CF0009480500FED2EF582E43CF583E4932FFFB2
:100D00000E80E7EFF404FF22C0E0300212E52C452C
:100D10002B600AE52C152C7006152B8002C202C22E
:100D2000CFD0E032C295120E4EC294EF25E0FF30D4
:100D300001010F120C9BD322E5C8540453C8FB7564
:100D4000CBF875CA0643C80442C8228D828C83C37F
:100D5000EC941E4008120D90EFF0120E0F22C0E02E
:100D6000C28D052AE52A70020529752801D0E032D6
:100D700075BB0775BC1975B38175B99E43E8C02270
:100D8000C0E0C2D8E4F5FAF5F905240526D0E03232
:100D9000C2AF438F01538FFD852DB7852EB722C279
:100DA000AF438F02438F01852DB7852EB72253F7AE
:100DB0007F75DA4975FB1075FC27228F1C120DE137
:100DC000AF1C120C9B020DC8C294120E4EC295129B
:100DD0000E49D2952243B183E5B15440644070F886
:100DE00022C2017F3C120D24E4FF020C9BC2017F52
:100DF0003C120D247F40020C9B8F828E83120D9F2C
:100E0000E4F0020E0F8E2B8F2CD2022002FD225313
:100E10008FFE538FFDD2AF2275F17775D48822757E
:100E2000E61075A8A62275F27C75D503227589098E
:100E300043881422EF44B0FF020DBBE4F5A575F220
:100E40007C2275A50375F27F22120E4ED2942212D7
:100E50000E49C29422E4F5A92275D1082275E4DD79
:100E600022FFFFFFC3C3E3FFBE9C0000000080E041
:100E7000FC7F0F0FFFFCF0800003030303FFFFFF65
:100E8000030303030000000000000000F0FCFE0E5E
:100E9000070303030307000000FFFFFFC3C3C3E70B
:100EA0007F3E1C000000FFFFFF0003030303FFFF62
:100EB000FF03030303000000FFFFFF0000F0FCFE40
:100EC0000E07030303030700000080E0FC7F0F0F01
:100ED000FFFCF08000000000FFFFFF000000003F6B
:100EE0003F3F303030393F1F0F00203C3F3F07036A
:100EF000030303073F3F3C200000003F3F3F00004B
:100F000000000000000000000000030F1F1C38302C
:100F1000303030380000003F3F3F000001071F3EE7
:100F20003C3000003F3F3F00000000003F3F3F00DB
:100F30000000000000003F3F3F0000030F1F1C386F
:100F4000303030303800203C3F3F070303030307B5
:100F50003F3F3C2000003F3F3F30303030FFFFFF3D
:100F6000C3C3E3FFBE9C0000000080E0FC7F0F0FC6
:100F7000FFFCF0800003030303FFFFFF03030303F1
:100F8000000000000000000000FFFFFF0000000064
:100F90000000F0FCFE0E07030303070EFEFCF0004A
:100FA000033FFFFFE00000F0FF3F3FFFFCC000C039
:100FB000FEFF3F033F3F3F303030393F1F0F0020DF
:100FC0003C3F3F0703030303073F3F3C2000000073
:100FD0003F3F3F0000000000000000000000000054
:100FE0003F3F3F303030300000030F1F1C3830309F
:100FF00030381C1F0F03000000011F3F3E3F3F031E
:101000000000011F3F3C3F1F010000E0F8FC1E0EE6
:1010100007070707070F00000000C0F8FF3F073F62
:10102000FFF8E00000000000FFFFFF0000000000EC
:10103000000000FFFFFF00000000FFFFFFC7C7C761
:10104000FFFE1C00071F3F3C787070707070380006
:1010500040787F7F0F0F0E0E0E0F0F7F7F784000BE
:10106000007F7F7F70707070700000007F7F7F0056
:101070000000007F7F7F717171797F3F1EFCFCFC57
:101080001C1C1C1C1C1C1C1C00000000C0E0F0F8F8
:10109000783C1C1C1C1C1C383870FFFFFF1C1C1CDF
:1010A0001C1C1C1C00000000FFFFFFFF01000000D3
:1010B000000000000000003F3F3F38383838383823
:1010C000383800000000030F0F1F1E3C3838383836
:1010D000381C1C0E7F0808087F00003E4141413E3D
:1010E00000007F404040007F4141633EFFFFFFC75B
:1010F000C7C7C7C7070000C0F8FF3F073FFFF8E0BA
:101100000000000000FFFFFF000000FFFFFF0000E5
:101110000000000000FFFFFFC7C7C7C707000000AF
:10112000FFFFFF070707070F1EFEFCF07F7F7F0111
:101130000101010140787F7F0F0F0E0E0E0F0F7F10
:101140007F784000007F7F7F0000007F7F7F70708E
:1011500070707000007F7F7F71717171700000008E
:101160007F7F7F70707070783C1F0F03E0F8FC1E6B
:101170000F070707070F1EFEFCF0000000FFFFFF30
:10118000C0E0F8FC3F0F070301070F1F3C787070A9
:101190007070783C1F0F070000007F7F7F01030FF6
:1011A0001F7E7C706040033FFFFFF00000C0FCFF2B
:1011B0000FFFFFF00000E0FEFF3F030000C0F8FF5C
:1011C0003F073FFFF8E00000000000FFFFFF0000C6
:1011D00007070707FFFFFF070707070000031F7F39
:1011E0007E7E7F0F0100000F7F7F7C7F1F0300400A
:1011F000787F7F0F0F0E0E0E0F0F7F7F784000005D
:101200007F7F7F0000000000007F7F7F00000000E4
:101210000080C0E0F0F0F8787878F8F8F0F0E0803E
:101220000000FCFFFFFFFF03000000000003FFFFC2
:10123000FFFFFC000F7FFFFFFFF0C0808080C0F049
:10124000FFFFFF7F0F0000000103030707070707E9
:10125000070303010000000000000080C0C0E0E0C0
:10126000F0F8F8F8F800000000000000000707039D
:101270000301FFFFFFFFFF0000000000000000006F
:1012800000000000FFFFFFFFFF0000000000000063
:10129000000000000000070707070700000000002B
:1012A0000000E0F0F07878787878F8F8F0F0E080F6
:1012B0000000000001000000008080C0F0FFFFFF80
:1012C0003F1F000000C0F0F8FCFEBF9F8F878381A6
:1012D00081808080000000070707070707070707CE
:1012E0000707070707070000000000F0707878780C
:1012F00078F8F8F0F0E0C000000000000000E0E046
:10130000E0E0E0F0FFBFBF1F0F0000000000E0C002
:10131000818181818183C3FFFFFFFF7C000000008A
:10132000030307070707070707030301000000007F
:101330000000000000000000C0F0F8F8F8F8F80025
:101340000000000080E0F0F87E3F0F07FFFFFFFF86
:10135000FF0000003E3F3F3F3F3D3C3C3C3CFFFF29
:10136000FFFFFF3C3C3C00000000000000000000CC
:101370000707070707000000000000F8F8F8787872
:10138000787878787878780000000000FEFFFFFF1A
:10139000F0F0F0F0F0F0E0C0C00000000000C0800D
:1013A0008080808080C1E3FFFFFFFF3F00000000DE
:1013B00003070707070707070703030100000000EB
:1013C00000000080C0E0F0F0F87878787878F800D5
:1013D000000000F0FEFFFFFFC7E1F0F0F0F0F0E0EA
:1013E000E0C00000001F7FFFFFFFE180808080C120
:1013F000FFFFFFFF3F00000000010303070707078F
:10140000070703030100000000787878787878787F
:10141000787878F8F8F8F8F8780000000000000014
:101420000080E0F8FEFF7F1F0701000000000000C1
:1014300000E0FCFFFFFF0F010000000000000000C3
:101440000000070707070700000000000000000079
:101450000080E0F0F0F8F8787878F8F8F0F0E080C4
:10146000000000071FBFBFFFF8F0E0F0F8FFFF9F8C
:101470001F0700007CFFFFFFFFC381818081C1C384
:10148000FFFFFFFF7C0000000103030707070707BA
:1014900007070303010000000000C0E0F0F0F87847
:1014A0007878F8F8F0F0E0800000007FFFFFFFFFA1
:1014B000E1808080C0E1FFFFFFFFFE000000C183EC
:1014C0008387878787C7E3F1FFFF7F3F070000001F
:1014D00003070707070707070303010000000000D1
:1014E00000000000000000000000000000000000FC
:1014F0000000000000E0E0E0E0E0E0E0E0E0E0E04C
:10150000E0000000000000000000000000000000FB
:1015100000000000000000000000000000000000CB
:1015200000000000000000000000000000000000BB
:101530000000000080C0C0C0C08003070707070389
:10154000AED580A81FD300408D142002A0C0DA02BF
:08155000817FD9F1DB40A4A664
:00000001FF
